:020000040800F2
:10000000800700209D01000837430008873700085B
:10001000354300084D0B000805570008000000009C
:10002000000000000000000000000000814A0008FD
:10003000210F00080000000059460008414E00084A
:10004000B7010008B7010008B7010008A947000878
:10005000B7010008B7010008B7010008B7010008A0
:10006000B7010008B7010008B7010008B701000890
:10007000B7010008B7010008B7010008B701000880
:10008000B7010008B7010008B7010008B701000870
:10009000B7010008B7010008B7010008B111000856
:1000A000B7010008B7010008B7010008B701000850
:1000B000B7010008ED4E0008B7010008B7010008BD
:1000C000B7010008B7010008B7010008B701000830
:1000D000B701000821560008B7010008B701000861
:1000E000B7010008B7010008B7010008B701000810
:1000F000B7010008B7010008B7010008B701000800
:10010000B7010008B7010008B7010008B7010008EF
:10011000B7010008B7010008B7010008B7010008DF
:10012000B7010008B7010008B7010008B7010008CF
:10013000B7010008B7010008B7010008B7010008BF
:10014000B7010008B7010008B7010008B7010008AF
:10015000B7010008B7010008B7010008B70100089F
:10016000B7010008B7010008B7010008B70100088F
:10017000B7010008B7010008B7010008000000003F
:10018000B7010008B7010008DFF80CD000F0DCFA76
:1001900000480047ED6400088007002006488047BB
:1001A00006480047FEE7FEE7FEE7FEE7FEE7FEE75C
:1001B000FEE7FEE7FEE7FEE7DD4E000889010008E6
:1001C0002DE9F05F0546002092469B46884606468C
:1001D000814640241BE0284641464746224600F01F
:1001E00004FA53465A46C01A914110D31146184694
:1001F000224600F0EBF92D1A67EB01084F46224624
:100200000120002100F0E2F917EB00094E41201E09
:10021000A4F10104DFDC484631462A464346BDE8E6
:10022000F09F40EA01039B0703D009E008C9121FB1
:1002300008C0042AFAD203E011F8013B00F8013BA0
:10024000521EF9D27047D2B201E000F8012B491ECC
:10025000FBD270470022F6E710B513460A46044663
:100260001946FFF7F0FF204610BD2DE9FE4F8046EE
:1002700081EA0300C00F0C46009021F0004123F0FA
:100280000045B8EB0200A94105D240462146904600
:100290001C460B46024623F00040104347D0270D72
:1002A000C7F30A00C3F30A510290401A0190402894
:1002B0006BDAC3F3130040F4801B0098924620B120
:1002C0000023D2EB030A63EB0B0B01985946C0F1F4
:1002D0004002504600F07AF906460D46504659460F
:1002E000019A00F092F910EB08006141002487EABE
:1002F000115284EAE7731A4340D0009A62B3019A1C
:10030000012A4FEA075215DC001B61EB02014FF096
:10031000004202EA0752CDE90042001C41F580117B
:1003200032462B4600F092F903B0BDE8F08F40460C
:100330002146F9E7001B61EB0201001C41F5801327
:1003400000185B412018A2F5001747EB030140EAB3
:10035000D570B6196D4111E06D084FEA360645EAD1
:10036000C0754FEA0752001B61EB0201001C41F50A
:10037000801149084FEA30000019514132462B469E
:1003800003B0BDE8F04F00F052B9009801224000E0
:100390000023D0EB020263EBE073009821464FEAA2
:1003A000E074B8EB000061EB0401E9E783F000437F
:1003B0005BE781F0004158E72DE9FE4F81EA030435
:1003C00004F0004421F0004100944FF0000B23F0B2
:1003D000004350EA01045ED052EA03045BD0C3F349
:1003E0000A54C1F30A552C44A4F2F3340194A0FB3F
:1003F0000254C1F3130141F48011C3F3130343F416
:10040000801301FB024400FB034E840A970A44EA6E
:10041000815447EA8357A4FB076802958D0A05FBC0
:1004200007854FEA932C04FB0C542705029D4FEAE5
:10043000065847EA1637B5EB08056EEB070C870E32
:10044000920E47EA811742EA8312A7FB0201B6EB3C
:100450000B0164EB00042B0D43EA0C335E1844EBF4
:100460001C50DA465146E7FB0201C5F313044FEA7C
:100470000B3343EA14534FEA0432019C43EA060368
:10048000A4F10C040294009CCDE900B400F0DEF865
:1004900003B0BDE8F08F00200146F9E72DE9F04DEB
:1004A00081EA030404F0004B21F0004514464FF0AC
:1004B000000A23F0004150EA050220D054EA01026C
:1004C0001DD0C5F30A570246C5F31303C1F3130049
:1004D000C1F30A5640F4801543F48013A7EB0608D5
:1004E000101BD64608F2FD3873EB050002D308F165
:1004F000010801E092185B41B8F1000F03DA002017
:100500000146BDE8F08D00204FF480110646844678
:100510000EE0171B73EB050705D3121B63EB0503F6
:1005200006434CEA010C49084FEA300092185B413F
:1005300050EA0107EDD152EA030012D082EA04002A
:1005400083EA0501084305D0101BAB4106D2012206
:10055000002306E000224FF0004302E06FF00102AA
:1005600053101AEB06004CEB085110EB0A0041EB5C
:100570000B01BDE8F04D00F05AB800F0004230F039
:1005800000400AD0C10D01F56071C0F3160042EAC7
:100590000151C208400711437047002001467047CF
:1005A00030B50B46014600202022012409E021FA43
:1005B00002F59D4205D303FA02F5491B04FA02F540
:1005C0002844151EA2F10102F1DC30BD202A04DB13
:1005D000203A00FA02F1002070479140C2F1200356
:1005E00020FA03F3194390407047202A04DB203A95
:1005F00021FA02F00021704721FA02F3D040C2F143
:1006000020029140084319467047202A06DBCB1789
:10061000203A41FA02F043EAE07306E041FA02F3BD
:10062000D040C2F12002914008431946704710B5EE
:10063000141E73F1000408DA401C41F10001921805
:100640005B411A4301D120F0010010BD2DE9F04DAE
:1006500092469B4611B1B1FA81F202E0B0FA80F203
:1006600020329046FFF7B2FF04460F4640EA0A00E8
:1006700041EA0B0153465A46084313D0114653EA48
:10068000010019D0C8F140025046FFF7AEFF054601
:100690000E46504659464246FFF798FF084305D09C
:1006A000012004E020463946BDE8F08D00200543D6
:1006B00046EAE0762C4337430A986305E40AA0EB48
:1006C00008000022FD0A44EA47540A3002D50020FF
:1006D0000146E9E7010510196941DDE908450019FE
:1006E0006941BDE8F04DA2E7C1F30A52C1F313011D
:1006F00040F2FF3341F480119A4202DA00200146B1
:10070000704740F233439A42A2F2334202DC524233
:10071000FFF76BBFFFF75ABF30B5041E71F100043D
:1007200004DB4FF00044404264EB0101141E73F1FE
:10073000000405DB1C464FF00043524263EB040308
:10074000994208BF904230BD064C074D06E0E06874
:1007500040F0010394E8070098471034AC42F6D308
:10076000FFF716FD2067000840670008464910B5EE
:100770004A6822F440324A604A6843681A434A6031
:1007800001684A6822F480724A6001684A68036915
:1007900042EA03224A6001684A6822F040724A60D5
:1007A00001684A6883681A434A6001688A6822F4CB
:1007B00000628A6001688A68C3681A438A60816A35
:1007C0006FF07062D14201688A6822F070628A60BC
:1007D00001688A680CD0836A1A438A6001688A6853
:1007E00022F040528A6001688A68C36A1A4301E0B5
:1007F00022F040528A6001688A6822F002028A6010
:1008000001688A68037E42EA43028A6090F82010F9
:10081000002901684A680FD042F400624A6001680A
:100820004A6822F460424A6001684A68174C436A89
:1008300004EB43331A4301E022F400624A6001688A
:10084000CA6A22F47002CA620168CA6A838B104CB9
:1008500004EB03531A43CA6201688A6822F40072E7
:100860008A6001688A6890F8303042EA43228A60E0
:1008700001688A6822F480628A6001688A68406937
:1008800042EA8020886010BD0023014000E0FFFFA5
:100890000000F0FF70B500780D46A0F120015E2940
:1008A00002D80E4901EB00140D4E002210213046F3
:1008B00000F07FFF204600F0C5FC0024FF2004F07C
:1008C00047F82855641CE4B2102CF7D33046BDE835
:1008D00070400122102100F06CBF000080D51D0087
:1008E00000040240F0B500257026294C89B0042789
:1008F000002128A2084603F00DFE2FA202210020AD
:1009000003F008FE35A20421002003F003FE3CA200
:100910000621002003F0FEFD002003F00FF92074F3
:10092000052806D0062810D007282FD0082820D068
:1009300021E0E0786D1C801CEDB2E070012D1AD929
:100940000025A6700220E07015E015B16D1EEDB215
:1009500000E00125E078801EC0B2E07002280AD2D3
:10096000022D02D2A670E77005E0E770E020A070CB
:1009700001E005F063FD227C2AA1684605F0CCF871
:1009800029A2E178A07803F0ADFDB1E709B0F0BD90
:1009900006000020202020202020202020202020B1
:1009A000B8A8D6FAB9A6C4DC202020202020202018
:1009B00020202020202000002020C2CBC4A4B3C6C9
:1009C000D6D8D0A3D7BC2020202020202020202033
:1009D0002020202020202020202000002020C1F7DF
:1009E000C1BFD0A3D7BC2020202020202020202041
:1009F0002020202020202020202020202020000037
:100A000020202020202020202020202020202020E6
:100A100020202020202020202020202020202020D6
:100A200020000000256400003C00000010B5124CBE
:100A3000002112A2084603F06DFD19A20221102028
:100A400003F068FD1BA20221A02003F04BFD1BA2B6
:100A50000421102003F05EFD1DA20421A02003F05C
:100A600041FD002003F06AF820740528E0D0062834
:100A7000DED00728DCD110BD060000202020202079
:100A8000202020202020BBF9CFDFB5E7C6BDE3D072
:100A9000D6B520202020202020202020202000004B
:100AA000BBF9CFDFB5E7C6BDB3ACB9FDC9CFCFDE6B
:100AB000A3BA0000313030306D560000BBF9CFDFF3
:100AC000B5E7C6BDB3ACB9FDCFC2CFDEA3BA000057
:100AD00032306D560000000010B50D4C00210DA203
:100AE000084603F017FD14A20221102003F012FDA6
:100AF00015A20221802003F0F5FC002003F01EF86F
:100B000020740528EAD00628E8D00728E6D110BDD1
:100B10000600002020202020202020202020B5E7D3
:100B2000B3D8B5E7C1BFE3D0D6B520202020202020
:100B30002020202020200000B5E7B3D8B5E7C1BFB2
:100B4000B5CDD3DAA3BA000032302500FEE70000AD
:100B50002DE9F0470024A24602EB820C02EB42068C
:100B60000125C2EBC20700BF81F800A090F8008009
:100B7000C4F1070905FA09F318EA030F00D00D7054
:100B800010F8028018EA030F05D091F8008048F0B1
:100B9000020881F8008010F8128018EA030F05D0CF
:100BA00091F8008048F0040881F8008010F8068071
:100BB00018EA030F05D091F8008048F0080881F882
:100BC000008010F8228018EA030F05D091F8008009
:100BD00048F0100881F8008010F80C8018EA030F24
:100BE00005D091F8008048F0200881F8008010F8C6
:100BF000168018EA030F05D091F8008048F04008ED
:100C000081F8008010F8078018EA030F03D00B78F2
:100C100043F080030B70641CE4B2491C082CA3D37E
:100C2000BDE8F087F0B50024A446012502EB42069A
:100C300081F800C00778C4F1070E05FA0EF31F42D1
:100C400000D00D70875C1F4203D00F7847F0020779
:100C50000F7010F812701F4203D00F7847F004078E
:100C60000F70875D1F4203D00B7843F008030B70B1
:100C7000641CE4B2491C082CDAD3F0BD30B503463D
:100C8000002208463124995C48400021050602D51F
:100C900084EA400000E04000491CC9B2C0B2082903
:100CA000F4D3521CD2B2022AEDD330BD10B5154C8C
:100CB000002115A2084603F02DFC1CA202211020E1
:100CC00003F028FC1CA20221902003F023FC1DA2AB
:100CD0000421102003F01EFC1EA20221602003F05C
:100CE00001FC1DA20221D02003F0FCFB002002F039
:100CF00025FF20740528DBD00628D9D00728D7D1B6
:100D000010BD0000060000202020202020202020F0
:100D1000202020202020CDA8D0C5CAFDBEDD202067
:100D2000202020202020202020200000D2C7C6F72D
:100D3000B5D8D6B7A3BA0000B2A8CCD8C2CAA3BA55
:100D400000000000D0A3D1E9B7BDCABDA3BACEDE72
:100D500000000000323535003131353230300000CE
:100D600010B5124C002112A2084603F0D3FB19A2C1
:100D70000221002003F0B6FB1FA20421002003F093
:100D8000B1FB26A20621002003F0ACFB2BA206211A
:100D9000E82003F0BFFB002002F0D0FE20740528FD
:100DA000E0D00628DED00728DCD110BD06000020E8
:100DB00020202020202020202020C0DBBCD3D6CA29
:100DC000C1BFC5A8B6C82020202020202020202078
:100DD00020200000204D2020633A203230202020A7
:100DE00020204D352E303A37353236202020202035
:100DF0002020202020000000204D312E303A2032CB
:100E00003020202020204D2031303A31323334350B
:100E1000202036362552482020000000204D322E5A
:100E2000353A20323020202020205453503A31329D
:100E3000333132332020203236000000A1E600009A
:100E400010B5124C002112A2084603F063FB19A250
:100E50000221002003F046FB1FA20421002003F022
:100E600041FB26A20621002003F03CFB2BA2062119
:100E7000E82003F04FFB002002F060FE20740528FC
:100E8000E0D00628DED00728DCD110BD0600002007
:100E90002020202020202020C0DBBCD3C1A3D7D31A
:100EA000CAFDC5A8B6C82020202020202020202050
:100EB00020200000204D2020633A203230202020C6
:100EC00020204D352E303A37353236202020202054
:100ED0002020202020000000204D312E303A2032EA
:100EE0003020202020204D2031303A31323334352B
:100EF000202036362552482020000000204D322E7A
:100F0000353A20323020202020205453503A3132BC
:100F1000333132332020203236000000A1E60000B9
:100F20007047000010B5104C002110A2084603F0D5
:100F3000F1FA17A20221002003F0D4FA14A204212E
:100F4000002003F0E7FA12A20621002003F0E2FAE3
:100F5000002002F0F3FD20740528E5D00628E3D038
:100F60000728E1D110BD000006000020202020202D
:100F700020202020C4ACC8CFB2E2C1BFCFD4CABEAB
:100F8000B8F1CABD202020202020202020200000F1
:100F90002020202020202020202020202020202051
:100FA0002020202020202020202020202020202041
:100FB0002000000030B58BB0224C234D00F056F9D4
:100FC000002122A2084603F0A5FAA388628928A17D
:100FD00002A804F0A1FD02AA0221002003F082FA77
:100FE000E069FFF7CAFACDE900016388228928A1E8
:100FF00002A804F091FD02AA0421002003F072FA75
:10100000A069FFF7BAFACDE900012388E28828A198
:1010100002A804F081FD02AA0621002003F062FA72
:101020002AA20621E82003F075FA002002F086FDCE
:1010300028740528C2D00628C0D00728BED10BB01E
:1010400030BD0000380000200600002020202020B5
:10105000202020202020B2EEB7D6D6CAC1BFC5A816
:10106000B6C8202020202020202020202020000082
:10107000204D2020633A2535642020204D352E3028
:101080003A25356420202020202020202000000048
:10109000204D312E303A2535642020204D2031302E
:1010A0003A253564202025322E662552482020001E
:1010B000204D322E353A25356420202054535020BF
:1010C0003A25356420202025322E6600A1E6000056
:1010D00010B5124C002112A2084603F01BFA19A207
:1010E0000221002003F0FEF91FA20421002003F0DA
:1010F000F9F926A20621002003F0F4F92BA206211B
:10110000E82003F007FA002002F018FD20740528FB
:10111000E0D00628DED00728DCD110BD0600002074
:101120002020202020202020B2EEB7D6C1A3D7D384
:10113000CAFDC5A8B6C820202020202020202020BD
:1011400020200000204D2020633A20323020202033
:1011500020204D352E303A373532362020202020C1
:101160002020202020000000204D312E303A203257
:101170003020202020204D2031303A313233343598
:10118000202036362552482020000000204D322EE7
:10119000353A20323020202020205453503A31322A
:1011A000333132332020203236000000A1E6000027
:1011B000202000F0F5B972B6FEE7000070B50278A5
:1011C0000D4643781D49A2F1A10008280BD8A12B98
:1011D00009D3C0EB001202EB401003EB40004001CA
:1011E000A0F5A1500FE0B03A472A0DD8A12B0BD3A0
:1011F000C2EB021000EB421003EB4000400140F252
:10120000AD2200EB421044180D4E00221021304652
:1012100000F0CFFA204600F015F80024FF2003F07C
:1012200097FB2855641CE4B2202CF7D33046BDE868
:1012300070400122102100F0BCBA0000D0C90200A9
:101240000004024070B5C0F30745C0F30724C6B2DE
:10125000032003F07DFB284603F07AFB204603F0D1
:1012600077FB3046BDE8704003F072BB10B588B024
:101270000F4803F045FB20B90E4A0D48111F03F03B
:1012800001FB0D4C2088010410D50949C0F30D0065
:10129000143948820949684604F0E4F905482022D7
:1012A00069461C38FEF7BDFF0020208008B010BD45
:1012B0001A0000205400002022000020B802002064
:1012C00078B50024009490F83C20012A19D001221E
:1012D00080F83C200A6807230568092A13D9EE68BC
:1012E0000A3A02EB420293409E43EE600B788A6812
:1012F0000A3B03EB43039A400368DD682A43DA6044
:1013000010E0022078BD2E6902EB420293409E431A
:101310002E610B788A6803EB43039A4003681D69CA
:101320002A431A614A681F23072A13D205686E6B85
:10133000521E02EB820293409E436E630B790A8831
:101340005B1E92B203EB83039A4003685D6B2A43F2
:101350005A6327E005680D2A12D22E6BD21F02EBCA
:10136000820293409E432E630B790A88DB1F92B260
:1013700003EB83039A4003681D6B2A431A6311E051
:10138000EE6A0D3A02EB820293409E43EE620B79C5
:101390000A880D3B92B203EB83039A400368DD6A2F
:1013A0002A43DA62164B0568144A9D4206D10D683D
:1013B000122D03D1556845F48005556005689D429E
:1013C00018D10B68102B01D0112B13D1536843F4A3
:1013D00000035360096810290CD10A490A4A0968B8
:1013E000B1FBF2F101EB8101490000E0491E0091DF
:1013F0000029FBD180F83C40002078BD002301404B
:10140000002001403400002040420F0070B504006D
:101410004FF0000503D0206C002610B107E001203A
:1014200070BD204600F01CF8666484F83C60206CB7
:10143000C00610D4206C20F4885040F002002064D4
:101440002046FFF793F96664206C20F0020040F01C
:101450000100206400E0012584F83C60284670BD4E
:1014600010B586B0044614216846FEF7F3FE114914
:10147000206888421BD110480021026842F4807223
:101480000260006800F4807005900B481438026810
:1014900042F001020260006800F0010005900320A4
:1014A0000090CDE901016946044800F085F806B0D6
:1014B00010BD0000002001404438024000000240FE
:1014C0002DE9F0410446876D00F078F9064694F85E
:1014D00035000025022806D08020606584F834504D
:1014E0000120BDE8F0812068016821F0160101604B
:1014F0002068416921F080014161206C08B9A06C2D
:1015000020B12068016821F00801016020680168AD
:1015100021F0010101600CE000F050F9801B05286A
:1015200007D920206065032084F8350084F8345002
:10153000D7E720680068C007EED194F85C103F2020
:101540008840B860012084F8350084F834500020C9
:10155000C7E790F83510022903D0802141650120AA
:101560007047052180F835100068016821F00101FD
:10157000016000207047000070B5044600F01EF9BD
:101580000546601C02D004480078044400F016F9B7
:10159000401BA042FAD370BD280000207047000015
:1015A000044910B50A68024202D00860FFF7F6FF4E
:1015B00010BD0000143C01402DE9F84FDFF8BCA13C
:1015C0000022012503264FF00F090AF1040BAAF1AE
:1015D000040E00BF0B6805FA02F42340A34270D149
:1015E0000F7907F00307012F01D0022F16D187686A
:1015F0004FEA420806FA08FC27EA0C07D1F80CC0AB
:101600000CFA08FC4CEA070CC0F808C04768A7436E
:101610000C79C4F3001494403C4344600C79E443D7
:10162000A4070AD0C4684FEA420C06FA0CF7BC4380
:101630008F6807FA0CF72743C7600C7904F003049E
:10164000022C12D1D40800EB840CDCF820405707A0
:10165000FF0E09FA07F824EA0804D1F8108008FA06
:1016600007F848EA0408CCF8208004684FEA420CE6
:1016700006FA0CF7BC430F7907F0030707FA0CF7DB
:10168000274307604C6814F4403F70D03C4C2768F7
:1016900047F480472760246822F0030704F480445D
:1016A0000094384C07EB040CDCF8084897074FEA25
:1016B000177809FA08F7BC43334FB84202D1002724
:1016C00024E054E0314FB84201D101271EE0304FF1
:1016D000B84201D1022719E02E4FB84201D10327A9
:1016E00014E02D4FB84201D104270FE02B4FB84230
:1016F00001D105270AE02A4FB84201D1062705E0AB
:10170000284FB84201D1072700E0082707FA08F759
:101710002743CCF80878DAF800405746D1F804C0DF
:101720009C435FEACC2C00D51C433C60DBF80040B6
:101730005F46D1F804C09C435FEA8C2C00D51C4363
:101740003C60DEF800407746D1F804C09C435FEA75
:101750008C3C00D51C433C60084F083F3C68D1F8E6
:1017600004C09C435FEACC3C00D51C433C60521C47
:10177000102AFFF42FAFBDE8F88F0000083C0140AD
:1017800044380240003001400000024000040240A2
:1017900000080240000C0240001002400014024009
:1017A00000180240001C02400069084000D00120DF
:1017B00070470AB1816170470904FBE701488068FE
:1017C000704700002800002070B5040025D094F870
:1017D0003D00002520B984F83C50204600F03EFA38
:1017E000242084F83D002068016821F00101016097
:1017F0002068016841F4004101602068016821F41B
:101800000041016000F070FC4D4A6168914201D8CE
:101810004C4900E04C49884201D2012070BD4B493F
:101820002368B0FBF1F15E6826F03F060E435E6070
:101830006368934206D94FF4967359434FF47A7311
:10184000B1FBF3F12368491C1E6A26F03F063143C1
:1018500019626168914210D84900401EB0FBF1F254
:10186000521CC2F30B02042A01D2042022E0B0FB76
:10187000F1F0401CC0F30B001CE0A268F2B301EBD6
:10188000C10303EB0116431EB3FBF6F35B1C43F4E9
:1018900080431B0549D092B301EBC10202EB011159
:1018A000401EB0FBF1F0401CC0F30B0040F4804040
:1018B00040F400402168CA694CF6FF739A43104314
:1018C000C861D4E9071001432068026822F0C00211
:1018D00011430160D4E9030101432068826848F2A2
:1018E000FF339A4311438160D4E90501084321681D
:1018F000CA6822F0FF021043C86001E00EE016E063
:101900002068016841F0010101602564202084F80D
:101910003D00256384F83E50002070BD01EB410678
:10192000431EB3FBF6F35B1CB3E70120C2E701EBF8
:101930004101401EB0FBF1F0401CC0F30B00B7E7C3
:10194000A086010080841E0000093D0040420F0077
:101950002DE9F84F1F4690468A460446DDF8289048
:10196000FFF72CFF054694F83D00202875D1192378
:1019700001226C492046009502F008F80028F5D1B4
:1019800094F83C00012868D0012084F83C002068CD
:101990000168C90703D1016841F0010101602068B5
:1019A000016821F400610160222084F83D001020CC
:1019B00084F83E0000262664C4F824806785608D84
:1019C00020855948E0622B464A465146204601F0A0
:1019D000F3FE002878D1208D544F68B1012814D02F
:1019E00002282068016816D041F4806101602068F7
:1019F00041698069009087E02068416981690091B0
:101A0000016841F4007101607EE02068016821F402
:101A100080610160F0E721F4806101602068016865
:101A200041F40061E2E7032848D801280AD00228DF
:101A300014D04B46002239462046009501F0A6FFFF
:101A4000D8BB27E02A464946204602F01EF8A0BB34
:101A500020680069616A08704DE061E04B46002231
:101A600039462046009501F091FF30BB206801689F
:101A700041F40071016020680069616A0870606A61
:101A8000401C6062218D491E2185618D491E618542
:101A900021682EE02068016821F4806101602068DF
:101AA0000069616A0870606A401C6062208D401E97
:101AB0002085608D401E6085D0E705E02A464946B6
:101AC000204601F0E2FF10B10120BDE8F88F206848
:101AD0000069616A0870606A401C6062218D491E5D
:101AE0002185618D491E618521684A69D24352076B
:101AF0000AD409690170606A401C6062208D401E32
:101B00002085608D401E6085208D00288BD120208F
:101B100084F83D0084F83E6084F83C600020D4E7FF
:101B20000220D2E7020010000000FFFF04000100C5
:101B30002DE9F84F1F4690468A460446DDF8289066
:101B4000FFF73CFE054694F83D0020287FD119237D
:101B5000012240492046009501F018FF002876D167
:101B600094F83C00012872D0012084F83C002068E1
:101B70000168C90703D1016841F0010101602068D3
:101B8000016821F400610160212084F83D001020EB
:101B900084F83E0000262664C4F824806785608DA2
:101BA00020852D48E0622B464A465146204601F0EA
:101BB00079FE90B9206841698069009036E02A4634
:101BC0004946204601F094FF50B1206C042804D10E
:101BD0002068016841F4007101600120BDE8F88FC0
:101BE000606A216800780861606A401C6062618DEB
:101BF000491E6185218D491E89B22185226853695C
:101C0000DB435B070BD451B100781061606A401C64
:101C10006062608D401E6085208D401E20852A46B2
:101C20004946204601F08CFE0028CED1208D0028A8
:101C3000C5D154F83D0B016841F4007101602020CA
:101C400004F81E09E67766770020C7E7FFE7022061
:101C5000C4E70000020010000000FFFF2DE9F04182
:101C600086B0044614216846FEF7F4FA2F4A21682C
:101C7000DFF8BC8000242E4812250326042708F133
:101C8000100891421CD1016841F002010160006816
:101C900002AA00F002000590C020CDE9000582E80C
:101CA000D00069462348FFF787FCD8F8001041F4BC
:101CB0000011C8F80010D8F8000000F4001031E05E
:101CC0001D4A91422FD1016841F004010160016871
:101CD00001F004010591016841F001010160006813
:101CE000694600F0010005905015CDE9000502AAF3
:101CF000124882E8D000FFF75FFC4FF48070CDE916
:101D0000000502AA694682E8D0000D48FFF754FC9E
:101D1000D8F8001041F40001C8F80010D8F800000D
:101D200000F40000059006B0BDE8F08100540040CA
:101D30003038024000040240005C004000080240CD
:101D400000000240024881680278114481607047B7
:101D5000280000200B4810B5016841F400710160B3
:101D6000016841F480610160016841F480710160A3
:101D7000032000F06FF80F2000F006F800F024F8C0
:101D8000002010BD003C024070B50D4D04464FF4DC
:101D90007A712878B1FBF0F00A490968B1FBF0F0DC
:101DA00000F04DFF48B9102C07D200222146501EEA
:101DB00000F030F800206C6070BD012070BD0000A4
:101DC00028000020340000200A4808B5016841F4CA
:101DD00080410160006800F4804000900548001FC9
:101DE000016841F080510160006800F0805000906F
:101DF00008BD000044380240002809DB00F01F0243
:101E0000012191404009800000F1E020C0F800115C
:101E100070470000F0B40E4B1B680C46C3F302235E
:101E2000C3F10705042D00D90425191D072901D286
:101E3000002300E0DB1E012606FA05F1491E2140C1
:101E400099409E40761E16403143F0BC03F078BEA8
:101E50000CED00E0064900F0070208684FF6FF03AA
:101E6000184040EA0220034A10430860704700000F
:101E70000CED00E00000FA052DE9F8430546006886
:101E80004FF00109C1074FF0000601D1400727D5E7
:101E9000DFF80C81C8F86860FFF790FC0746414CFA
:101EA00005E000BFFFF78AFCC01B022857D8206856
:101EB0000001F7D468688101287A41EA0070394945
:101EC00084310860C8F86890FFF778FC074604E0A2
:101ED000FFF774FCC01B022841D820680001F7D529
:101EE0002878800752D52F484030016841F0805152
:101EF000016000682C4C00F080500090206840F495
:101F000080702060FFF75AFC074604E0FFF756FC9C
:101F1000C01B022823D82068C005F7D5214C703497
:101F2000206810F4407020D0A98901F440718142EA
:101F30001BD020681D4920F44070C1F800900E604D
:101F400020602068C00710D0FFF738FC064641F239
:101F5000883707E0FFF732FC801BB84202D9032024
:101F6000BDE8F88320688007F4D5E9680D48C1F31F
:101F700001220830032A0BD0016821F4F811016016
:101F80002068A989C1F30B01084320600020E7E71E
:101F90000268074B22F4F81219400A430260EFE787
:101FA000000047420038024000700040400E4742A7
:101FB000FFFCFF0F2DE9F0470E46050065D0DFF866
:101FC0001481D8F80000F7B200F00700B04207D241
:101FD00088F80070D8F8000000F00700B04254D133
:101FE00028683D4C810712D5400703D5206840F48E
:101FF000E05020602878000703D5206840F4604056
:1020000020602068A96820F0F0000843206028784C
:10201000C0072DD0304968680839012812D002283D
:1020200013D0032811D00968890700292DDA216807
:1020300021F0030101432160FFF7C0FB814641F21B
:10204000883A0EE009688903EFE709688901ECE73F
:10205000FFF7B4FBA0EB0901514502D90320BDE80D
:10206000F0872068696800F00C00B0EB810FEFD1B9
:10207000D8F80010404601F00701B14207D90770B7
:10208000006800F00700B04201D00120E7E728789F
:10209000400705D52068E96820F4E0500843206037
:1020A0002878000706D52068296920F4604040EAB6
:1020B000C100206000F038F82168084AC1F303111C
:1020C000515CC8400649086006480068FFF75CFE9E
:1020D0000020C4E7003C02400838024008670008BE
:1020E000340000202C0000200448054900680968DD
:1020F000044AC1F38221515CC8407047340000207B
:102100000838024018670008044805490068096853
:10211000044AC1F34231515CC8407047340000208A
:102120000838024018670008154810B5006810F01C
:102130000C02144813D04110042A0FD0082A0ED1E3
:102140000F4C241F2268236802F03F025B0207D570
:102150002068C0F38810A0FB010106E0084610BD0E
:102160002168C1F38811A1FB00010023FEF728F8C4
:102170002168C1F30141491C4900B0FBF1F010BDD9
:10218000083802400024F4002DE9F84F04006ED016
:102190002078DFF84C93C007A9F104054AD009F173
:1021A00004000168C1F38101012908D00068C0F36F
:1021B000810002280AD1D9F80000400206D528681B
:1021C000800337D560680028E1D033E06068B0F55F
:1021D000803F10D0B0F5A02F286810D020F48030B8
:1021E0002860286820F4802028606068A8B1FFF784
:1021F000E5FA06460DE0286840F48030F4E740F444
:1022000080202860F7E700BFFFF7D8FA801B64281A
:1022100073D828688003F7D50CE0FFF7CFFA06469D
:1022200005E000BFFFF7CAFA801B6428F0D82868D1
:102230008003F7D42078DFF8AC8280074FF0000AE3
:102240003ED5A748001D016811F00C0F08D00068AA
:10225000C0F3810002280BD1D9F80000400207D456
:102260002868800716D5E068012800D112E033E124
:10227000E068B8B10120C8F80000FFF79FFA0646F1
:1022800005E000BFFFF79AFA801B0228C0D8286833
:102290008007F7D52868216920F0F80040EAC100DE
:1022A00028600DE0C8F800A0FFF788FA064604E0B1
:1022B000FFF784FA801B02281FD828688007F7D40C
:1022C0002078000722D5864F87486169703771B141
:1022D00001210160FFF772FA064604E0FFF76EFA8B
:1022E000801B022809D838688007F7D50EE0C0F8AF
:1022F00000A0FFF763FA064605E082E0FFF75EFA0A
:10230000801B02287DD838688007F7D420784007E2
:1023100068D5DFF8CCB100270BF13C0BDBF80000EF
:10232000C0000BD4DBF8001041F08051CBF8001056
:10233000DBF80000012700F0805000906B4E306801
:10234000C00510D4306840F480703060FFF736FA72
:10235000009005E0FFF732FA0099401A022850D8A1
:102360003068C005F6D55E4EA0686C3601280FD0E7
:102370000528306810D020F001003060306820F06F
:1023800004003060A068B8B1FFF718FA00900FE0C1
:10239000306840F00100F4E740F004003060F7E7F7
:1023A000FFF70CFA0099411A41F28830814266D851
:1023B00030688007F4D50EE0FFF700FA009007E0E0
:1023C000FFF7FCF90099411A41F28830814256D852
:1023D00030688007F4D42FB1DBF8001021F0805171
:1023E000CBF80010A069C8B33D49091D0968C1F3C5
:1023F000810102294AD00228504607D0C8F860005F
:1024000000E03CE0FFF7DAF904463BE04746C8F855
:102410006000FFF7D3F9064605E000BFFFF7CEF9ED
:10242000801B02282BD828688001F7D4D4E9070143
:102430000843A16A2E4A490802EB0141626A41EA57
:102440008211084394F82C1040EA0161C9F8001089
:1024500001203866FFF7B2F9044606E03EE000BF0F
:10246000FFF7ACF9001B022809D828688001F7D5CE
:1024700034E000BFFFF7A2F9001B022802D90320B5
:10248000BDE8F88F28688001F4D427E00128F7D050
:10249000D9F80000E26900F4800191421CD1226A5F
:1024A00000F03F01914217D147F6C071626A0140C6
:1024B000B1EB821F10D1A26A4FF0FF3300F440311C
:1024C00003EB5202B1EB024F06D194F82C1000F04E
:1024D0007060B0EB016F01D00120D1E70020CFE7A1
:1024E0000438024000004742800E4742007000401E
:1024F0000000FFFF2DE9F8478A4639494FF4FA4CAE
:1025000091460F684FF47A72B7FBFCF1514300918A
:10251000017F012962D001250577022141770268F8
:10252000CA21516202685321516201688A684FF0E2
:10253000000352054FF0FF044FF0030608D5009A40
:10254000B2F10108CDF8008018D3CA685207F6D45A
:102550008A6822F480628A600168CA6802F0800298
:1025600062F49062CA60B7FBFCF14FF47A72514397
:1025700000910168009A571E009705D24C62467779
:1025800003770320BDE8F887CA685207F2D58A6846
:1025900022F007028A6001688A6842EA09028A60BA
:1025A0000268C2F814A00F490A6842F480020A6067
:1025B0000C4908310A6842F480020A6001688A689E
:1025C00042F480428A6001688A6842F480628A60CC
:1025D00001684C62457703770020D3E70220D1E7FA
:1025E00034000020003C01407047000010B5044654
:1025F0000068C068400509D52046FFF7F5FF206850
:10260000C16801F0800161F49061C16003494FF439
:10261000800008600120607710BD0000143C01407C
:1026200010B500680B4641680D480140080CD87091
:10263000C1F304245C7001F03F049C70C1F342318B
:10264000197052B902F060F8D870587802F05CF84E
:102650005870987802F058F89870002010BD00006B
:102660003FFFFF0010B50B460168896A5960016899
:102670000969C1F30E019960006801680D480140C5
:10268000C1F305401870C1F306245C7001F07F04AB
:102690009C70890DD97052B902F036F818705878CC
:1026A00002F032F85870987802F02EF898700020F6
:1026B00010BD00007F7F7F0010B5040002D0607F56
:1026C00010B106E0012010BD00202077204600F068
:1026D00039F8022060772168CA20486221685320B7
:1026E0004862204602F026F830BB20688168144A10
:1026F000114081602168886862681043D4E904232E
:102700001A43104388602168E06808612068016905
:10271000228941EA02410161204602F02FF858B9AE
:1027200021680A6C22F480220A6421680A6CA36979
:102730001A430A64012161772268FF21516210BDAA
:10274000BFFF8FFF1FB500210091019102910391FE
:1027500000680C49884214D10220009000020390C6
:102760006846FFF789FB08B1FEF725FD0649012001
:102770000860002211460320FFF74CFB0320FFF7FF
:102780003BFB1FBD002800403C0E474270B504468D
:10279000007F0B46012819D001262677022060779A
:1027A000B2B19878D97840EA014558781978000292
:1027B00040EA413005432168CA204862216853201D
:1027C0004862204601F0B6FFD0B122E0022070BD81
:1027D0005878C10603D500F0EF000A305870D87859
:1027E00001F09BFF0204587801F097FF42EA0022B3
:1027F000987801F092FF0243187842EA4035DAE710
:102800000748054020684560204601F0B7FF00B941
:1028100066772268FF2151620021217770BD000098
:102820003FFFFF002DE9F0410446007F0D460128DF
:1028300023D04FF0010884F81C80022060772068C4
:10284000002780684FEA4060D2B1002800DBEF70BB
:10285000A878297840EA01466878E978000240EAD9
:10286000815006432168CA2048622168532048628B
:10287000204601F05FFFB8B12CE00220BDE8F081F6
:10288000002800DBEF70287801F047FF0204687829
:1028900001F043FF42EA0022A87801F03EFF024324
:1028A000E87842EA8056DDE70D4806402068066079
:1028B0002068816821F480218160D5E90301084303
:1028C00021688A6810438860204601F057FF08B9E4
:1028D00084F81D802268FF2151622777CEE700002F
:1028E0007F7F7F0070B504460068C16821F0A001B9
:1028F000C160FEF763FF05464FF47A7607E000BF3C
:10290000FEF75CFF401BB04201D9032070BD206878
:10291000C0688006F4D5002070BD70B5040009D0F1
:10292000606A002540B125616561A56294F8510097
:1029300040B10CE0012070BD6068B0F5827FF4D03A
:10294000E561F2E784F85050204600F045F8022097
:1029500084F851002068016821F040010160A088DE
:10296000218900F4827001F404410843A18901F433
:1029700000610843217C01F002010843217D01F040
:1029800001010843218B01F400710843217F01F00C
:102990003801084394F8201001F080010843218D8C
:1029A00001F40051084321680860A069042101EA8C
:1029B000104094F8241001F0100108432168486089
:1029C0002068C16921F40061C1616565012084F856
:1029D0005100002070BD000010B586B004461421DF
:1029E0006846FDF737FC14492068884221D1134816
:1029F0000021026842F400420260006800F40040D6
:102A000005900E481038026842F004020260006827
:102A100000F0040005904FF4E05000900220CDE952
:102A20000101032003900620049069460448FEF744
:102A3000C3FD06B010BD0000003C0040403802401D
:102A4000000802402DE9F84F044690F85000002796
:102A50000A9E1D4692468B464FF0010901280ED072
:102A6000012084F85000FEF7A9FE804694F851003A
:102A7000616801280CD0B1F5827F07D102E0022005
:102A8000BDE8F88FA16809B9042801D00227C2E087
:102A9000BBF1000F27D0BAF1000F24D01DB394F87A
:102AA0005100042802D0052084F851000020606500
:102AB000C4F838A0E587A587C4F830B0E586A586B8
:102AC0002064606420680168490603D4016841F00D
:102AD00040010160E068B0F5006F606805D0E8B3C0
:102AE000012D46D07FE0012795E008B1012D39D1B5
:102AF000206B21680088C860206B801C2063E08EFA
:102B0000401EE0862EE02068816889070FD5E18E9F
:102B100069B1B9F1010F0AD1216B0988C160206B3D
:102B2000801C2063E08E401EE0864FF00009206884
:102B30008168C9070CD0E18F51B1C068A16B0880D2
:102B4000A06B801CA063E08F401EE0874FF001095E
:102B5000FEF734FEA0EB0800B04200E009E001D32C
:102B6000701C50D1E08E0028CDD1E08F0028CAD152
:102B70003FE0206B216800780873206B401C2063C5
:102B8000E08E401EE0862EE02068816889070FD520
:102B9000E18E69B1B9F1010F0AD1216B0978017396
:102BA000206B401C2063E08E401EE0864FF0000941
:102BB00020688168C9070CD0E18F51B1C068A16B52
:102BC0000870A06B401CA063E08F401EE0874FF0B0
:102BD0000109FEF7F3FDA0EB0800B04202D3701C20
:102BE00001D010E07EB1E08E0028CDD1E08F00282A
:102BF000CAD142463146204601F0BAFE28B101272B
:102C00002020606507E0032705E0A06818B9206868
:102C1000C16880680090012084F85100002084F889
:102C2000500038462CE74FF0E0210428086903D013
:102C300020F004000861704740F00400FAE710B586
:102C4000401EB0F1807F01D3012010BD4FF0E02481
:102C500060610F21601702F073FF0020A061072060
:102C60002061002010BD7047704710B590F83C20DF
:102C7000012A22D0012280F83C20CA688C6822F404
:102C8000407222434C6822F4806222430C6822F492
:102C9000006222430C6922F4805222434C6922F4E0
:102CA00000522243C969002322F480420A4301688A
:102CB0004A6480F83C30002010BD022010BD0000A6
:102CC00070B590F83C20012A32D0012480F83C40B5
:102CD000022280F83D2003685A689D6822F0700641
:102CE0000A6832435A60134B02689A4214D0B2F118
:102CF000804F11D0104B9A420ED0104B9A420BD0FD
:102D00000F4B9A4208D00F4B9A4205D00E4B9A4275
:102D100002D00E4B9A4204D1496825F08003194332
:102D2000916080F83D40002180F83C10084670BD5D
:102D3000022070BD00000140000400400008004077
:102D4000000C004000040140004001400018004019
:102D500010B5040003D094F83D0010B107E0012045
:102D600010BD002084F83C00204600F01FF802202F
:102D700084F83D00211D206802F0BEF8012084F88F
:102D8000460084F83E0084F83F0084F8400084F850
:102D9000410084F8420084F8430084F8440084F839
:102DA000450084F83D00002010BD000008B5006813
:102DB0001149884209D11148016841F001010160BF
:102DC000006800F00100009008BD0D498842FBD169
:102DD0000A48001F016841F00201016000680022FA
:102DE00000F00200009011461D20FFF713F8BDE827
:102DF00008401D20FFF700B80000014044380240A1
:102E00000004004090F83D10012901D001207047D6
:102E1000022180F83D100168CA6842F00102CA60D0
:102E200000681149884214D0B0F1804F11D00F4989
:102E300088420ED00E4988420BD00E49884208D0F5
:102E40000D49884205D00D49884202D00C4988427C
:102E500004D1816801F00701062903D0016841F01F
:102E600001010160002070470000014000040040A3
:102E700000080040000C00400004014000400140F8
:102E8000001800400168CA6822F00102CA600168A7
:102E90000A6A41F211131A4207D10A6A9B101A42B8
:102EA00003D10A6822F001020A60012180F83D1076
:102EB0000020704770B5044690F83C0000250128BA
:102EC00017D0012684F83C60022084F83D00206879
:102ED000826822F0770222F47F42826008685028DC
:102EE00038D00DDC20284FD005DC90B3102811D14C
:102EF0004AE0022070BD302846D040280AD13BE08D
:102F000060282FD070280DD0B0F5805F03D0B0F5C9
:102F1000005F12D0012584F83D60002084F83C0059
:102F2000284670BDCB68D1E90121206802F055F830
:102F30002068816841F0770109E0CB68D1E901217F
:102F4000206802F04AF82068816841F4804181607D
:102F5000E1E719E0CA684968206802F013F95021D6
:102F6000206806E0CA684968206802F01CF9602100
:102F7000206802F03CF8CEE7CA684968206802F091
:102F800001F940212068F4E7226801461046F0E785
:102F9000704770B50446006801694FF00005C943E9
:102FA000890715D4C168C943890711D4E91E016195
:102FB00001202077206880698007204602D0FFF733
:102FC000E7FF04E000F0C2F8204600F054F925774E
:102FD00020680169C943490717D4C168C943490733
:102FE00013D46FF00401016102202077206880690A
:102FF00010F4407F204602D0FFF7CAFF04E000F043
:10300000A5F8204600F037F9257720680169C94303
:10301000090716D4C168C943090712D46FF0080123
:103020000161042020772068C0698007204602D013
:10303000FFF7AEFF04E000F089F8204600F01BF92E
:10304000257720680169C943C90617D4C168C943F7
:10305000C90613D46FF010010161082020772068A1
:10306000C06910F4407F204602D0FFF791FF04E0D2
:1030700000F06CF8204600F0FEF825772068016922
:10308000C943C90708D1C168C943C90704D1891E0A
:103090000161204600F054F920680169C94309061E
:1030A00009D4C168C943090605D46FF080010161E4
:1030B0002046FFF7D8FD20680169C943490609D4B5
:1030C000C168C943490605D46FF04001016120463B
:1030D00000F06AF920680169C94389060BD4C16808
:1030E000C943890607D46FF0200101612046BDE87D
:1030F0007040FFF7B9BD70BD10B586B0044614210D
:103100006846FDF7A7F80E492068884216D10D4899
:103110000021026842F010020260006800F0100016
:1031200005904FF4007000900220CDE901010120CC
:10313000CDE9031069460448FEF73EFA06B010BD1B
:10314000000001403038024000100240704770B566
:10315000044690F83C0000260D4601280FD00120BF
:1031600084F83C006AB1042A1DD0082A2FD00C2A0A
:103170003FD00126002084F83C00304670BD02207C
:1031800070BD206801F03CFF2068816941F00801B2
:1031900081612068816921F0040181612068816971
:1031A0002A69114311E0206801F05AFF2068816903
:1031B00041F4006181612068816921F4806181614D
:1031C000206881692A6941EA02218161D2E7206889
:1031D00001F07CFF2068C16941F00801C1612068ED
:1031E000C16921F00401C1612068C1692A691143E4
:1031F00011E0206801F09EFF2068C16941F4006180
:10320000C1612068C16921F48061C1612068C16920
:103210002A6941EA0221C161ACE710B5040003D07C
:1032200094F83D0010B107E0012010BD002084F8A3
:103230003C00204600F01EF8022084F83D00211DCD
:10324000206801F059FE012084F8460084F83E0011
:1032500084F83F0084F8400084F8410084F842007C
:1032600084F8430084F8440084F8450084F83D0065
:10327000002010BD7047704710B50446022249B1C6
:1032800004290ED0082913D094F84100012816D043
:10329000012010BD94F83E000128F9D184F83E20A9
:1032A0000FE094F83F000128F2D184F83F2008E0B5
:1032B00094F840000128EBD184F8402001E084F824
:1032C00041200122206801F07BFE16492068164A41
:1032D000884201D0904203D1436C43F400434364DD
:1032E0002068884213D0B0F1804F10D00F49884237
:1032F0000DD00F4988420AD00E49884207D090422B
:1033000005D00D49884202D00C49884204D1816819
:1033100001F00701062903D0016841F001010160B5
:10332000002010BD000001400004014000040040E6
:1033300000080040000C0040004001400018004020
:10334000F0B41649884226D115488188491C89B2B3
:10335000818014291FD343880022C3F30D01C1804B
:10336000104C8D1E05E0A65C0778521C3E4406708A
:1033700092B2AA42F7DB002282802144047811F83D
:10338000011CA14203D143F4004141800270F0BC12
:103390000248FFF777BDF0BC704700002C02002008
:1033A00020000020B802002070477047704710F8D6
:1033B0003D1F407808437047F8B501680446086827
:1033C000CA684B6910F00F0F4FF0000559D003F099
:1033D000010602F49077374365D0C10705D0D105C7
:1033E00003D5216C41F001012164410705D5D907BE
:1033F00003D0216C41F002012164810705D5D90772
:1034000003D0216C41F004012164010707D502F0CB
:103410002001314303D0216C41F008012164216C6B
:1034200000293AD0800604D5900602D5204601F046
:10343000F2FF20684069216CC0F38010090700D4B6
:1034400060B3204601F0C0FF20684069400621D5E6
:103450002068143050E8001F21F0400140E80012BD
:10346000002AF5D1A06BA8B16C490165A06BFEF7ED
:1034700070F8002811D0A06B016D01B0BDE8F040DC
:10348000084783060FD593060DD52046BDE8F840C2
:1034900001F0C1BF2046FFF789FFF8BD2046FFF7C6
:1034A00085FF2564F8BD266B2023012E79D1C60641
:1034B00077D5D60675D508684868009048694006F3
:1034C00040D5A16B086840680004000CEAD0A28DCA
:1034D0008242E7D9E085C869B0F5807F2DD02068A9
:1034E0000C3050E8001F21F4807140E80012002ADF
:1034F000F5D12068143050E8001F21F0010140E8A8
:103500000012002AF5D12068143050E8001F21F085
:10351000400140E80012002AF5D184F83E302563CE
:1035200020680C3050E8001F21F0100140E8001224
:10353000002AF5D1A06BFDF7C3FFA08DE18D401AE5
:1035400081B229E0A08DE18D401A81B2E08D002882
:10355000A8D00029A6D020680C3050E8002F22F413
:10356000907240E80026002EF5D12068143050E813
:10357000002F22F0010240E80026002EF5D184F849
:103580003E30256320680C3050E8002F22F01002F6
:1035900040E80023002BF5D12046FFF706FFF8BDD9
:1035A000FFE705062BD5150629D594F83D002128FF
:1035B000F5D1A068B0F5805F01D12069B0B1206A73
:1035C000411C2162216800784860E08C401E0004A4
:1035D000000CE084E3D12068C16821F08001C16063
:1035E0002068C16841F04001C160D8E7206A0088C6
:1035F000C0F308004860206A801C2062E5E74006AE
:10360000CDD55006CBD5CA68204622F04002CA600C
:1036100084F83D3000F0B6F8C1E70000B953000867
:1036200070B5040004D094F83D00002510B106E008
:10363000012070BD84F83C50204600F023F824207F
:1036400084F83D002068C16821F40051C160204623
:1036500001F042FF2068016921F490410161206876
:10366000416921F02A0141612068C16841F400519B
:10367000C1602564202084F83D0084F83E000020CD
:1036800070BD000010B586B0044614216846FCF7F2
:10369000E1FD18492068884229D1174800210268B5
:1036A00042F010020260006800F01000059012481D
:1036B0001438026842F001020260006800F0010064
:1036C00005904FF4C06000900220CDE90101032075
:1036D00003900720049069460848FDF76DFF00221B
:1036E00011462520FEF796FB2520FEF785FB06B048
:1036F00010BD0000001001404438024000000240AC
:1037000090F83E30202B0ED159B152B190F83C3098
:10371000012B08D0012380F83C300023036301F023
:1037200061BF0120704702207047000070B500683B
:103730001049884211D1104C0022A28060880104F7
:103740000BD404F101050D4E2978430406D500BFC2
:10375000C0F30D02401CB154608070BD822901D0BD
:10376000628070BD0648FFF74DFB6088297840F401
:103770008040EDE70010014020000020B80200204A
:103780002C0200207047FEE701684A69D2435205C7
:103790000FD46FF480624A61002140F8301F20226C
:1037A00042738173026942F00402026101730120D5
:1037B00070470020704700002DE9F84F0446C06AAA
:1037C0001E4693460D4621680A6842F480620A60EC
:1037D000082807D0012805D010F5803F02D0206BC3
:1037E000112804D12068016841F4807101604FF014
:1037F00001195B46002249462046009600F0C6F8B3
:103800004FF4007840B120680068C00501D5C4F8C5
:1038100040800320BDE8F88F2069DFF884A0B0F570
:10382000804F0FD00620216800EAD51747F0F0003E
:10383000086133465A460AF10601204600F0DAF8DC
:1038400058BB03E0E8B240F001001CE02168E8B298
:10385000086133465A465146204600F0CBF8E0B99D
:103860002068416981690091016841F480710160BB
:103870005B46002249462046009600F087F8002863
:10388000C1D147F0F1002168086133465A465146DC
:10389000204600F0AFF80028BCD00120BAE70000B5
:1038A00002000100F8B50446C06A1E460D461746E0
:1038B000082807D0012805D010F5803F02D0206BE2
:1038C000122804D12068016841F480710160134618
:1038D00000224FF001112046009600F057F840B149
:1038E00020680068C00502D54FF4007020640320F2
:1038F000F8BD2069B0F5804F0ED00620216800EA9F
:10390000D51040F0F000086133463A460B49204696
:1039100000F070F878B902E005F0FE0000E0E8B2CF
:1039200021680861054933463A46891F204600F060
:1039300061F80028DCD00120F8BD0000080001007B
:1039400070B516460D4604460DE02046FFF71CFFF5
:1039500008B1012070BD681C05D0FDF72FFF801B4A
:10396000A84207D835B120684069C0434007ECD46D
:10397000002070BD002044F8300F20216173A07337
:10398000216941F0200121612073E2E72DE9F04730
:103990001E4690460D460446C1F30747DDF82090C9
:1039A00008E0701C06D0FDF709FFA0EB0900B0424B
:1039B0000FD876B12068012F18D0806925EA000061
:1039C0000004000C14D000214145EAD00020BDE8DD
:1039D000F087002044F8300F20216173A073216923
:1039E00041F02001216120730120F0E74069E5E703
:1039F0000121E9E72DE9F0479A4691460E46044633
:103A000000254FF02008C1F3074725E020684069F2
:103A1000C043400514D42068016841F4007101607E
:103A200021686FF480604861256384F83D8084F8E4
:103A30003E50206C40F00400206484F83C501FE0AD
:103A4000B9F1FF3F08D0FDF7B9FEA0EB0A014945E7
:103A50000CD8B9F1000F09D02068012F13D080696C
:103A600026EA00000004000C0BD0CFE744F8305FDA
:103A700084F80D80A573206940F020002061257333
:103A80000120BDE8F0874069EAE72DE9F041002513
:103A900090460E460446202717E04069C043C00602
:103AA0000CD454F8301B6FF01000486144F81059E2
:103AB0006777A577206A2062257717E0FDF77EFEFD
:103AC000A0EB0800B04208D83EB120684169C94364
:103AD0004906E2D40020BDE8F08144F8305F677306
:103AE000A573206940F02000206125730120F2E7D2
:103AF00070B516460D4604460DE02046FFF744FE1D
:103B000008B1012070BD681C05D0FDF757FE801B71
:103B1000A84207D835B120684069C0430006ECD4FC
:103B2000002070BD002044F8300F20216173A07385
:103B3000216941F0200121612073E2E72DE9F05F66
:103B40000126624D3703DFF88891624C4FF400483C
:103B50004FF4807A4FF4806B012839D0287878B3FD
:103B600039462046FDF720FE88B341462046FDF742
:103B70001BFE60B304214846FDF716FE38B38021D2
:103B80002046FDF711FE10B351462046FDF70CFE0E
:103B9000E8B159462046FDF707FEC0B14FF4006179
:103BA0002046FDF701FE90B14FF400512046FDF78D
:103BB000FBFD60B14FF480412046FDF7F5FD30B1CB
:103BC00039462046FDF7F0FD01284CD07CE001E0AD
:103BD0002E70C5E70A2002F061FC002028703946EB
:103BE0002046FDF7E1FD58B341462046FDF7DCFDD8
:103BF00048B304214846FDF7D7FD30B38021204665
:103C0000FDF7D2FD18B351462046FDF7CDFD00B3B8
:103C100059462046FDF7C8FDE8B14FF40061204643
:103C2000FDF7C2FDC8B14FF400512046FDF7BCFDC1
:103C3000A8B14FF480412046FDF7B6FD88B143E0BE
:103C40000120BDE8F09F0220FBE70320F9E70420F4
:103C5000F7E70520F5E70620F3E70720F1E708205E
:103C6000EFE70920EDE741462046FDF79DFD0128DD
:103C70002AD104214846FDF797FD012824D180214F
:103C80002046FDF791FD01281ED151462046FDF743
:103C90008BFD012818D159462046FDF785FD0128E6
:103CA00012D1C1022046FDF77FFD01280CD141034E
:103CB0002046FDF779FD012806D181032046FDF756
:103CC00073FD012800D12E700020BAE70400002007
:103CD000000402400010024010B5084C002108A268
:103CE000084600F017FC0020FFF728FF2074052885
:103CF000F4D00628F2D00728F0D110BD060000202D
:103D0000202020202020202020202020BCA4B9E238
:103D1000D2ECB3A32020202020202020202020200F
:103D2000202000007FB500241A48009401940294DA
:103D300017490394016001254FF480310561C0E902
:103D40000114047680F820401349C0E90A140226C1
:103D5000C661C46080F830404561FDF757FB08B18B
:103D6000FDF729FACDE9004569460A480294FDF7B6
:103D7000A7FA08B1FDF71FFACDE9005669460548D4
:103D8000FDF79EFA002801D0FDF715FA7FBD00006F
:103D9000002001407C0000200100000F2DE9F04FC1
:103DA00087B014216846FCF755FA4D480024016895
:103DB00041F010010160016801F0100105910168F6
:103DC00041F080010160016801F080010591016806
:103DD00041F001010160016801F0010105910168F4
:103DE00041F004010160016801F0040105910168DE
:103DF00041F002010160016801F0020105910168D2
:103E000041F0080101600068DFF8D89000F0080078
:103E1000059000220C214846FDF7CBFCDFF8C8A036
:103E200046F21006002231465046FDF7C2FCDFF88C
:103E3000BCB04FF46057002239465846FDF7B9FC34
:103E40004FF48078002241462948FDF7B2FC0C204F
:103E500000900125CDE90154694648460394FDF7D9
:103E6000ABFB202000904FF48810CDE90104694697
:103E70001F48FDF7A1FB0420CDE900046946504628
:103E80000294FDF799FB4FF68050CDE90004694696
:103E900048460294FDF790FB0096CDE9015469462F
:103EA00050460394FDF788FB0097CDE9015469461D
:103EB00058460394FDF780FBCDF80080CDE901540E
:103EC00069460B480394FDF777FB00221146172043
:103ED000FDF7A0FF1720FDF78FFF07B0BDE8F08FBB
:103EE000303802400010024000040240000C024042
:103EF000000802400D4810B50B4901600C494160B3
:103F000000214FF480428160C0E903124161816168
:103F1000C1610162FDF758FC002803D0BDE81040E4
:103F2000FDF749B910BD000000540040C400002056
:103F3000A08601000D4810B50B4901600C49416095
:103F400000214FF480428160C0E903124161816128
:103F5000C1610162FDF738FC002803D0BDE81040C4
:103F6000FDF729B910BD0000005C004018010020D9
:103F7000A086010010B586B014216846FCF76AF9E6
:103F80001F4800241D490594C0E900147F21816069
:103F9000FF21C0E9031444618461FEF78DFB08B181
:103FA000FDF709F98DF800408DF801408DF80240C9
:103FB00003940122694612480494FEF733FC08B1C9
:103FC000FDF7F9F801208DF814008DF815008DF833
:103FD000160002468DF8174005A90948FEF7D6FBE2
:103FE00008B1FDF7E8F8002211460548FEF782FA0D
:103FF000002801D0FDF7DFF806B010BD0028004012
:104000006C010020104810B50E4901604FF4827118
:10401000416000218160C1604FF400720161C0E91C
:1040200005122822C0E90721416281620A21C1628A
:10403000FEF773FC002803D0BDE81040FDF7BBB8C5
:1040400010BD0000003C00408C01002010B596B06F
:1040500000240F9410941194129413941C2108A816
:104060001494FCF7F7F820216846FCF7F3F8294888
:1040700027490160A721C0E901146321C0E90314A5
:1040800044618461FEF764FE08B1FDF794F84FF4D3
:1040900080500F900FA91F48FEF70CFF08B1FDF7E5
:1040A0008AF81C48FFF7B9F808B1FDF784F81394B3
:1040B00013A918481494FEF703FE08B1FDF77BF826
:1040C00060200890322009900220CDE90A040C9467
:1040D0000D94002208A90F480E94FFF738F808B194
:1040E000FDF769F800944FF40050CDE904400294C4
:1040F00001940394694607480794FEF7B6FD08B19A
:10410000FDF759F80348FEF7F7FF16B010BD0000A1
:1041100000000140E401002010B586B000241648DC
:10412000009401940294039404941249059401604C
:10413000A721C0E901140921C0E903148461FEF735
:1041400007FE08B1FDF737F84FF48050009069463C
:104150000948FEF7AFFE08B1FDF72DF8049404A955
:1041600005480594FEF7ACFD002801D0FDF723F8C3
:1041700006B010BD000400402C0200200C4810B511
:104180000A4901604FF4E1314160002181600C2255
:10419000C160C0E904128161C161FFF741FA0028E2
:1041A00003D0BDE81040FDF706B810BD0010014077
:1041B000740200202DE9F04300250226374C89B017
:1041C00080274FF004094FF0F008002134A2084680
:1041D00000F0A0F93BA20221002000F09BF942A2CE
:1041E0000421002000F096F948A20621002000F0EA
:1041F00091F90020FFF7A2FC2074052806D00628BC
:1042000014D0072846D0082826D038E060796D1CE5
:10421000801CC0B2EDB26071042830D9022D03D9E0
:104220002771002566712AE0667112E015B16D1ED6
:10423000EDB200E003256079801EC0B260710228F3
:104240001DD2022D03D2277184F8059017E084F85F
:10425000059084F8048012E035B1012D07D0022DBD
:1042600008D0032D0BD108E0FCF732FF07E0FCF784
:10427000E7FD04E0FCF79EFE01E0FCF771FD227C07
:104280002AA1684601F048FC29A26179207900F052
:1042900029F99AE709B0BDE8F08300000600002084
:1042A00020202020202020202020B2E2C1BFD6B52F
:1042B000CFD4CABE20202020202020202020202053
:1042C000000000002020B2EEB7D6C1A3D7D3CAFDAC
:1042D000C5A8B6C82020B2EEB7D6D6CAC1BFC5A8F9
:1042E000B6C82020000000002020C0DBBCD3C1A342
:1042F000D7D3CAFDC5A8B6C82020C0DBBCD3D6CA58
:10430000C1BFC5A8B6C82020000000002020202082
:10431000202020202020202020202020202020209D
:1043200020202020202020202020200025640000A4
:104330003C000000FEE7FEE770B501225A4D140272
:1043400021462846FDF735FA1420FDF715F900221D
:1043500021462846FDF72DFA1420FDF70DF901221C
:1043600021462846FDF725FAC820FDF705F930203B
:1043700001F04EFB6E2001F04BFB312001F048FBB9
:10438000D72001F045FB9F2001F084FBE02001F0E5
:104390003FFB002001F07EFB1420FDF7EDF8E32049
:1043A00001F036FB1420FDF7E7F8E12001F030FBC7
:1043B000302001F02DFB942001F02AFBAE2001F00B
:1043C00027FB3220FDF7D8F8202001F021FB0B203D
:1043D00001F060FB812001F01BFB1F2001F05AFB64
:1043E000022001F057FB312001F012FB322001F0D6
:1043F0000FFB002001F04EFB012001F04BFB0520DC
:1044000001F048FB512001F003FBFB2001F042FBCF
:10441000302001F0FDFAF02001F0FAFA102001F04E
:1044200039FBCA2001F0F4FA002001F033FB3F20F1
:1044300001F030FB002001F02DFB312001F0E8FA03
:10444000F22001F0E5FA1E2001F024FB282001F003
:1044500021FB322001F01EFBF02001F0D9FA1620DA
:1044600001F018FB162001F015FB162001F012FBDD
:10447000162001F00FFB302001F0CAFABC2001F039
:10448000C7FA002001F006FBA62001F0C1FA312096
:1044900001F0BEFA402001F0BBFA01F0CFFFBDE809
:1044A0007040AF2001F0B4BA0008024070B5054674
:1044B0000C46752001F0ACFAC4F10700C0B201F05F
:1044C000E9FA0A2001F0E6FA152001F0A1FA2846DF
:1044D00001F0E0FAFF2001F0DDFABDE870405C2059
:1044E00001F096BA70B515460E4604460CE02A4611
:1044F0003146204600F036F80834E4B2F82C02D9F0
:104500000024B61CF6B26D1C287820385E28EED93F
:1045100070BD000070B515460E4604461BE020280D
:1045200005D02A463146204600F048F80BE00CA2A0
:104530003146204600F016F804F10800C0B208A287
:10454000314600F00FF81034E4B2F02C02D9002408
:10455000B61CF6B2AD1C28780028E0D170BD000072
:10456000200000002DE9F0438BB088460446064643
:1045700004A91046FCF78EF96A4604A9002000F051
:1045800019F900254FEA0D09414619F80570204632
:10459000FFF78CFF384601F07DFA641CE4B2A01BE3
:1045A000082804D108F10100344600F0FF086D1C12
:1045B000EDB2102DE8D30BB0BDE8F0832DE9F04348
:1045C00093B088460446064608A91046FCF7F6FD57
:1045D0006A4608A9032000F0EDF800254FEA0D090E
:1045E000414619F805702046FFF760FF384601F094
:1045F00051FA641CE4B2A01B102804D108F1010098
:10460000344600F0FF086D1CEDB2202DE8D313B046
:10461000BDE8F0830D489FED0C0ADFED0D0A80ED3B
:10462000000A80ED010A80ED020A80ED030A80EDA8
:10463000070A80ED080A9FED070AC0ED040A80ED25
:10464000050AC0ED060A704700000000580000206F
:10465000CDCC4C3E8FC2753C7047000010B5124C5B
:10466000002112A20846FFF755FF19A202211020CF
:10467000FFF750FF1CA20221B020FFF733FF1BA25F
:1046800004211020FFF746FF1EA20421B020FFF7EF
:1046900029FF0020FFF752FA20740528E0D00628F1
:1046A000DED00728DCD110BD06000020202020200D
:1046B000202020202020B1C3CBD9B8DFB5CDE3D056
:1046C000D6B52020202020202020202020200000DF
:1046D000B1C3BFD8D6C6C2F6BFEDB3ACB9FDC9CF22
:1046E000CFDEA3BA0000000038302500B1C3BFD828
:1046F000D6C6C2F6BFEDB3ACB9FDCFC2CFDEA3BA0A
:104700000000000032302500010901EB810100F0BA
:104710000F0000EB4100C0B27047002103E0491CCC
:104720000A38C9B2C0B20A28F9D2090740EA1160B2
:10473000704700002DE9F041044600680025C1687B
:10474000490618D4C16841F08001C160FDF736F810
:1047500006464FF47A78042707E000BFFDF72EF8ED
:10476000801B404501D9677701252068C068400655
:1047700001D4002DF2D02846BDE8F08170B5044682
:1047800000680025C16821F08001C1602068806850
:10479000800606D42046FEF7A5F810B10420607705
:1047A0000125284670BD00000148FDF71FBF00002D
:1047B0006C01002070B515460C4638B3022846D06F
:1047C000032830D0052820D100260422294620467F
:1047D000FCF7BEF90835641C042229462046FCF784
:1047E000B7F90835641C042229462046FCF7B0F9C5
:1047F0000835641C042229462046FCF7A9F9761CDA
:10480000F6B21D340835042EDFD370BD0026012218
:1048100029462046FCF79CF9761CF6B20834083588
:10482000022EF4D370BD0026022229462046FCF752
:104830008FF90835641C022229462046FCF788F9C6
:10484000761CF6B20F340835022EEDD370BD02226D
:1048500029462046FCF77CF90835641C02222946CB
:104860002046FCF775F908350F3402222946204608
:10487000FCF7D8F9601C05F10801BDE87040022280
:10488000FCF7D0B970B50E4615460446FF21FCF77B
:10489000F5F9A178884206D1FF21E01CFCF7EEF97A
:1048A0006179884201D0012070BD2088DFED100AB7
:1048B00040BA00EE100ADFED0F1AB8EE400A80EEA3
:1048C000201A9FED0D0A01EE210A86ED000AB4F8C8
:1048D000030040BA00EE100A0020B8EE400A80EE55
:1048E000201A9FED060A21EE000A85ED000A70BD30
:1048F00000FF7F4700002F43000034C20000C84281
:1049000038B504464FF4604000F00CF84FF6FF70E5
:1049100000900623224689210148FDF719F838BD89
:10492000C40000201CB5010A8DF804108DF80500A4
:104930001420FCF721FE4FF6FF700090022301AA1D
:1049400088210248FDF7F4F81CBD0000C4000020D7
:1049500001B582B04FF47A700090012301AA02A938
:104960000248FEF76FF89DF804000EBD8C01002090
:1049700038B504461248134B0068B0FBF3F04FF40F
:104980007A73584300906068B0F5827F0DD10B4672
:10499000009200228021204600F016F870B1606D70
:1049A00040F020006065032038BD009830B1401E03
:1049B000009020688068C0430006F6D5002038BD0E
:1049C0003400002000366E012DE9F8431E46914662
:1049D00088460446089DFCF7F1FE401B351AFCF79B
:1049E000EDFE074625480068C0F3CB30684338E049
:1049F000701C37D0FCF7E2FEC01BA84203D215B1F1
:104A0000009860B32CE02068416821F0E00141602B
:104A10006068B0F5827F0BD1A068B0F5004F02D07E
:104A2000B0F5806F04D12068016821F04001016079
:104A3000A06AB0F5005F09D12068016821F4005137
:104A400001602068016841F400510160012084F890
:104A50005100002084F850000320BDE8F8830025B1
:104A6000401E00902068816838EA010004D00021CF
:104A70004945BDD10020F0E70121F9E734000020CD
:104A80007047000010B5104C002110A20846FFF737
:104A900041FD17A202210020FFF724FD14A20421EA
:104AA0000020FFF737FD12A206210020FFF732FD9C
:104AB0000020FFF743F820740528E5D00628E3D04E
:104AC0000728E1D110BD0000060000202020202092
:104AD000202020202020CAFDBEDDB4E6D6FCBCE4A8
:104AE000B8F420202020202020202020202000009A
:104AF00020202020202020202020202020202020B6
:104B000020202020202020202020202020202020A5
:104B100020000000F0B5002570262E4C89B0042737
:104B200000212DA20846FFF7F5FC34A20221002047
:104B3000FFF7F0FC3AA204210020FFF7EBFC41A2B2
:104B400006210020FFF7E6FC0020FEF7F7FF2074A7
:104B5000052806D0062810D0072838D0082820D0ED
:104B60002AE0607A6D1C801CEDB26072012D23D9A1
:104B700000252672022060721EE015B16D1EEDB296
:104B800000E00125607A801EC0B26072022813D254
:104B9000022D02D2267267720EE06772E020207248
:104BA0000AE001F04BFC15B1012D05D102E0FFF741
:104BB00001FB01E000F05CF8227C2BA1684600F0CC
:104BC000ABFF2AA2617A207AFFF78CFCA8E709B034
:104BD000F0BD000006000020202020202020202002
:104BE00020202020D7B4CCACCFD4CABE2020202097
:104BF00020202020202020202020000020202020F5
:104C0000B2E2C1BFD6B5CFD4CABE2020202020201A
:104C100020202020202020202020202020200000D4
:104C200020202020CFB5CDB3D7B4CCAC202020207D
:104C30002020202020202020202020202020202074
:104C400020200000202020202020202020202020A4
:104C50002020202020202020202020202020202054
:104C60002020202020000000256400003C000000DF
:104C70002DE9F0410025484F484C92B070264FF086
:104C8000040800BFFCF7F2FA002145A20846FFF72E
:104C900041FC4CA202211020FFF73CFC4CA2022157
:104CA0008020FFF737FC4DA204211020FFF732FCD3
:104CB0004DA204218020FFF72DFC4EA206211020DA
:104CC000FFF728FC7A8A4EA109A800F025FF09AA5F
:104CD00002215020FFF706FC4AA20221D020FFF754
:104CE00001FC49A204216020FFF7FCFB48A204213B
:104CF000D020FFF7F7FB002204A94748FDF7B2FCDC
:104D0000002211A94448FDF78BFC9DF846009DF850
:104D100012309DF811209DF810108DE80F009DF8BD
:104D200045309DF847203DA109A800F0F5FE09AAED
:104D300006216020FFF7D6FB0020FEF7FFFE20745F
:104D4000052806D0062810D007289BD112B0BDE850
:104D5000F081E0796D1C801CEDB2E071012D91D9DC
:104D60000025A6710220E0718CE715B16D1EEDB231
:104D700000E00125E079801EC0B2E071022881D2F6
:104D8000022D03D2A67184F807807BE784F80780A0
:104D9000E020A07176E70000380000200600002027
:104DA000202020202020202020202020CFB5CDB37F
:104DB000D7B4CCAC20202020202020202020202070
:104DC00020200000B0E6B1BEBAC5A3BA00000000C2
:104DD000D4CBD0D0CAB1BCE4A3BA0000B2C9D1F9D7
:104DE000C1F7C1BFA3BA0000B5E7B3D8B5E7C1BFEB
:104DF000A3BA0000C8D5C6DACAB1BCE4A3BA0000A1
:104E000025640000313053002020202000000000E5
:104E100031303025000000006C0100203230253098
:104E200032642D253032642D253032642D25303208
:104E3000643A253032643A25303264202000000084
:104E4000FCF780BF30B593B030216846FBF702FA1B
:104E500014210CA8FBF7FEF91E480025016841F05B
:104E600080510160006800F0805011901A4801687C
:104E700041F4804101600068022400F480401190F8
:104E8000092000904FF4803001900120CDE9050405
:104E90008005079008AA0420A82182E813000B903F
:104EA0006846FDF771F908B172B6FEE70CA90F204C
:104EB00081E831004FF4A0500F904FF480501090D3
:104EC00005210CA8FDF776F8002801D072B6FEE7A0
:104ED00013B030BD40380240007000400248016805
:104EE00041F470010160704788ED00E00148FEF771
:104EF00050B800002C020020F0B50268254C264D69
:104F0000264E274F274B4FF0804CA04209D06045DA
:104F100007D0A84205D0B04203D0B84201D0984291
:104F200004D122F0700E4A6842EA0E02A0421BD061
:104F3000604519D0A84217D0B04215D0B84213D05E
:104F4000984211D0184DA8420ED0184DA8420BD04F
:104F5000174DA84208D0174DA84205D0164DA842BB
:104F600002D0164DA84203D122F44075CA682A43E4
:104F70004D6922F080022A4302608A68C2620A6890
:104F80008262A04201D0984201D1096901630121E6
:104F90004161F0BD000001400004004000080040F5
:104FA000000C00400004014000400140004401406A
:104FB0000048014000180040001C00400020004054
:104FC00010B501F01F030121046A99408C4304626B
:104FD000016A9A401143016210BD10B5846842EA2B
:104FE000032224F47F440A432243826010BD826876
:104FF00022F070020A4342F007018160704700000E
:10500000F0B5026A22F001020262036A4268846912
:10501000124E24F073050C682C4323F002058B68B4
:105020002B430D4DA84201D0B04205D123F0080713
:10503000CB683B4323F00403A84201D0B04205D122
:105040004D6922F4407215438A692A4342608461A3
:10505000496841630362F0BD000001400004014063
:10506000F0B5026A22F010020262026A43688469A3
:105070000D6824F4E64444EA05248D6822F02002F9
:1050800042EA05120F4D104EA84201D0B04206D19F
:10509000CF6822F0800242EA071222F04002A842C2
:1050A00001D0B04207D14D6923F4406343EA850340
:1050B0008D6943EA850343608461496881630262C4
:1050C000F0BD00000000014000040140F0B5026A9C
:1050D00022F480720262026A4368C46922F4007298
:1050E00024F073050C68124E2C438D6842EA0522A9
:1050F0000E4DA84201D0B04206D1CF6822F4006222
:1051000042EA072222F48062A84201D0B04207D1CD
:105110004D6923F4405343EA05138D6943EA0513AF
:105120004360C4614968C1630262F0BD0000014090
:105130000004014030B5026A22F480520262046A1F
:105140004268C3690D6823F4E64343EA05238D688A
:1051500024F4005444EA0534084DA84202D0084D16
:10516000A84204D14D6922F4804242EA851242608D
:10517000C36149680164046230BD00000000014061
:105180000004014010B5036A046A24F001040462BB
:10519000846924F0F00444EA021423F00A020A436A
:1051A0008461026210BD10B5036A23F0100303622C
:1051B0008369046A23F4704343EA023224F0A003B3
:1051C00043EA01118261016210BD000070B5002444
:1051D000594D92B03826002158A20846FFF79AF997
:1051E0009DF826009DF812309DF811209DF81010B2
:1051F0008DE80F009DF825309DF8272058A10AA8BA
:1052000000F08AFC0AAA02210020FFF76BF960A2D5
:1052100004210020FFF77EF95DA206210020FFF7A0
:1052200079F90020FEF78AFC287404EB440006EBB1
:10523000C000C0B249A20221FFF754F9287C05281A
:105240000BD0062834D0072869D00828C3D1641CA5
:10525000E4B2062CBFD10024BDE7062CBBD2DFE8A8
:1052600004F003090F151B219DF827006328B2D213
:10527000401C29E09DF825000B28ACD2401C2BE0F7
:105280009DF826001E28A6D2401C2DE09DF8100097
:105290001728A0D2401C2FE09DF811003B289AD27D
:1052A000401C31E09DF812003B2894D2401C33E0B2
:1052B000062C90D2DFE804F0030B131B232B9DF880
:1052C0002700002887D0401E8DF8270083E79DF82F
:1052D00025000028C0D0401E8DF825007BE79DF8F2
:1052E00026000028B8D0401E8DF8260073E79DF8F0
:1052F00010000028B0D0401E8DF810006BE79DF81C
:1053000011000028A8D0401E8DF8110063E79DF819
:1053100012000028A0D0401E8DF812005BE700228A
:1053200004A92448FDF77EFA012209A92148FDF7C6
:105330002DFA12B070BD00000600002020202020B1
:10534000202020202020C8D5C6DACAB1BCE4C9E894
:10535000D6C3202020202020202020202020000034
:105360002020202020203230253032642D2530327C
:10537000642D253032642D253032643A2530326474
:105380003A253032642020202020202020000000F8
:10539000202020202020202020202020202020200D
:1053A00020202020202020202020202020202020FD
:1053B000200000006C01002010B5806B0021C18529
:1053C000C184FDF7F3FF10BD01680C3151E8002FD7
:1053D00022F4907241E80023002BF5D101681431CA
:1053E00051E8002F22F0010241E80023002BF5D103
:1053F000016B012909D101680C3151E8002F22F01D
:10540000100241E80023002BF5D1202180F83E1046
:1054100000210163704708B590F83E10222901D0A1
:10542000022008BD82684FF480539A4201D101697D
:1054300021B1816A9A421BD04AB10AE00268816AAE
:105440005268C2F308020A80816A891C08E0026976
:1054500072B10268526802F07F020A70816A491CC8
:105460008162C18D491E0904090CC18503D019E070
:1054700002685268F1E70168CA6822F02002CA6037
:105480000168CA6822F48072CA6001684A6922F021
:1054900001024A61202180F83E10016B012903D0EE
:1054A000FEF744F9002008BD0021016301680C31BA
:1054B00051E8002F22F0100241E80023002BF5D123
:1054C00001680A68D20602D50A6849680091818D90
:1054D000FDF76BFFE6E7000070B504460068016960
:1054E000E26821F44051114301612169A068E26939
:1054F00008436169114308432168CA6849F20C6393
:105500009A430243CA6020684169A26921F440714C
:105510001143416131492068884202D030498842B4
:1055200002D1FCF7F1FD01E0FCF7DEFDE2690023AA
:10553000192164253226B2F5004F626828D0A0FBFD
:105540000101930F9200FAF73BFE0146B0FBF5F024
:105550006FF01802504301EB800006EB0010B0FB27
:10556000F5F000F0F002B1FBF5F002EB0012B1FB38
:10557000F5F06FF01803584301EB800006EB0010C4
:10558000B0FBF5F000F00F0021681044886070BD9A
:10559000A0FB010192185B41FAF712FE0146B0FB35
:1055A000F5F00201B1FBF5F06FF01803584301EB81
:1055B000800006EBC000B0FBF5F000F0F80002EB55
:1055C0004002B1FBF5F0584301EB800006EBC00050
:1055D000B0FBF5F000F00700D6E700000010014036
:1055E0000014014081628285C2850021016422226B
:1055F00080F83E2080F83C10016921B10168CA683A
:1056000042F48072CA6001684A6942F001024A614C
:105610000068C16841F02001C160002070470000AF
:1056200070B500246FF070450C48FDF7C5FE02E030
:10563000641CAC4204D80948FDF7B9FE2028F7D114
:10564000002402E0641CAC4206D80122044903484D
:10565000FEF756F80028F5D170BD00007402002056
:105660002100002000B54A788B7889B002EB032234
:10567000ADF80020CA780B7902EB0322ADF80220C6
:105680004A798B7902EB0322ADF80420CA790B7AB0
:1056900002EB0322ADF806204A7A8B7A02EB032252
:1056A000ADF80820CA7A0B7B02EB0322ADF80A2082
:1056B0004A7B8B7B02EB0322ADF80C20CA7B0B7C70
:1056C00002EB0322ADF80E204A7C8B7C02EB032216
:1056D000ADF81020CA7C0B7D02EB0322ADF812203E
:1056E0004A7D8B7D02EB0322ADF81420CA7D097E32
:1056F00002EB0121ADF8161020226946FAF791FD60
:1057000009B000BDFEE700002DE9F041022570263A
:10571000384C88B04FF00408E027002136A2084634
:10572000FEF7F8FE3DA202210020FEF7F3FE44A2A0
:1057300004210020FEF7EEFE4AA206210020FEF71B
:10574000E9FE0020FEF7FAF92074052806D00628A5
:1057500017D007284BD008282AD03DE06078401C9D
:10576000C1B26170607B801CC0B26073042833D901
:10577000022904D900206070267365732CE06573DC
:1057800014E0607808B1401E00E003206070607B88
:10579000801EC0B2607302281ED26078022803D235
:1057A000267384F80D8017E084F80D80277313E0CA
:1057B000607830B1012807D0022808D003280BD127
:1057C00008E0FFF703FD07E000F060F804E0FFF7F2
:1057D00059F901E0FBF7A6FB227C2AA1684600F0FC
:1057E0009BF929A2617B207BFEF77CFE95E708B040
:1057F000BDE8F0810600002020202020202020206D
:1058000020202020D3C3BBA7B2CECAFD2020202059
:105810002020202020202020000000002020C8D5AB
:10582000C6DACAB1BCE4C9E8D6C32020CAFDBEDDD1
:10583000B4E6D6FCBCE4B8F4202020200000000030
:105840002020B1A8BEAFE3D0D6B5C9E8B6A82020C5
:10585000C4ACC8CFCFD4CABEB8F1CABD2020202066
:1058600000000000202020202020202020202020B8
:105870002020202020202020202020202020202028
:1058800020202000256400003C0000002DE9F043AA
:1058900000250226384C89B050274FF004094FF0FC
:1058A000D008002135A20846FEF734FE3CA20221B2
:1058B0000020FEF72FFE43A204210020FEF72AFE5F
:1058C00049A206210020FEF725FE0020FEF736F94A
:1058D0002074052806D0062814D0072848D00828A8
:1058E00026D03AE0E07A6D1C801CC0B2EDB2E072C6
:1058F000042832D9022D03D9A7720025E6722CE0C4
:10590000E67212E015B16D1EEDB200E00325E07AFB
:10591000801EC0B2E07202281FD2022D03D2A772ED
:1059200084F80B9019E084F80B9084F80A8014E056
:1059300000F084FD35B1012D07D0022D08D0032DD4
:105940000BD108E0FBF7C8F807E0FBF76FF804E0BD
:10595000FEF7C2F901E0FEF781FE227C2AA168462B
:1059600000F0DAF829A2E17AA07AFEF7BBFD98E709
:1059700009B0BDE8F08300000600002020202020B0
:1059800020202020B1A8BEAFE3D0D6B5C9E8B6A884
:105990002020202020202020202020200000000087
:1059A0002020B5E7B3D8B5E7C1BF202020202020B4
:1059B0002020BCA4B9E2D2ECB3A3202020202020D8
:1059C000000000002020BBF9CFDFB5E7C6BD2020D6
:1059D000202020202020B1C3CBD9B8DFB5CD202096
:1059E0002020202000000000202020202020202037
:1059F00020202020202020202020202020202020A7
:105A00002020202020202000256400003C000000F1
:105A10002DE9F047DFF8748005464FF4805A0022E4
:105A2000514644464046FBF7C4FE4FF40056002260
:105A300031462046FBF7BDFE0024B146144F7600E8
:105A4000280601D5012200E0002249463846FBF72E
:105A5000B0FE012000F030FD002231463846FBF751
:105A6000A8FE012000F028FD012231463846FBF750
:105A7000A0FE6806641C050EE4B2082CE0D3514673
:105A80004046BDE8F0470122FBF793BE000C024000
:105A9000000402402DE9F047DFF8748005464FF41A
:105AA000805A0022514644464046FBF782FE0122BE
:105AB000560331462046FBF77CFE0024B146154FC5
:105AC0007600280601D5012200E00022494638462A
:105AD000FBF76FFE012000F0EFFC00223146384654
